{"abi":[{"type":"function","name":"blessings","inputs":[{"name":"","type":"address","internalType":"address"}],"outputs":[{"name":"steward","type":"address","internalType":"address"},{"name":"sanctumName","type":"string","internalType":"string"},{"name":"jurisdiction","type":"string","internalType":"string"},{"name":"emotionalAPR","type":"string","internalType":"string"},{"name":"timestamp","type":"uint256","internalType":"uint256"}],"stateMutability":"view"},{"type":"function","name":"getBlessing","inputs":[{"name":"steward","type":"address","internalType":"address"}],"outputs":[{"name":"","type":"tuple","internalType":"struct NodeLiabilityShield.NodeBlessing","components":[{"name":"steward","type":"address","internalType":"address"},{"name":"sanctumName","type":"string","internalType":"string"},{"name":"jurisdiction","type":"string","internalType":"string"},{"name":"emotionalAPR","type":"string","internalType":"string"},{"name":"timestamp","type":"uint256","internalType":"uint256"}]}],"stateMutability":"view"},{"type":"function","name":"isBlessed","inputs":[{"name":"steward","type":"address","internalType":"address"}],"outputs":[{"name":"","type":"bool","internalType":"bool"}],"stateMutability":"view"},{"type":"function","name":"registerNode","inputs":[{"name":"sanctumName","type":"string","internalType":"string"},{"name":"jurisdiction","type":"string","internalType":"string"},{"name":"emotionalAPR","type":"string","internalType":"string"}],"outputs":[],"stateMutability":"nonpayable"},{"type":"event","name":"NodeBlessed","inputs":[{"name":"steward","type":"address","indexed":true,"internalType":"address"},{"name":"sanctumName","type":"string","indexed":false,"internalType":"string"},{"name":"jurisdiction","type":"string","indexed":false,"internalType":"string"},{"name":"emotionalAPR","type":"string","indexed":false,"internalType":"string"},{"name":"timestamp","type":"uint256","indexed":false,"internalType":"uint256"}],"anonymous":false}],"bytecode":{"object":"0x6080604052348015600e575f5ffd5b50610f2e8061001c5f395ff3fe608060405234801561000f575f5ffd5b506004361061004a575f3560e01c806339817edb1461004e578063428a9f7d1461006a578063817dd7dc1461009a578063fd577be7146100ce575b5f5ffd5b61006860048036038101906100639190610884565b6100fe565b005b610084600480360381019061007f9190610982565b610263565b60405161009191906109c7565b60405180910390f35b6100b460048036038101906100af9190610982565b6102ae565b6040516100c5959493929190610a67565b60405180910390f35b6100e860048036038101906100e39190610982565b610490565b6040516100f59190610bb4565b60405180910390f35b6040518060a001604052803373ffffffffffffffffffffffffffffffffffffffff168152602001848152602001838152602001828152602001428152505f5f3373ffffffffffffffffffffffffffffffffffffffff1673ffffffffffffffffffffffffffffffffffffffff1681526020019081526020015f205f820151815f015f6101000a81548173ffffffffffffffffffffffffffffffffffffffff021916908373ffffffffffffffffffffffffffffffffffffffff16021790555060208201518160010190816101d09190610dd1565b5060408201518160020190816101e69190610dd1565b5060608201518160030190816101fc9190610dd1565b50608082015181600401559050503373ffffffffffffffffffffffffffffffffffffffff167f5107080be8f3166704ddef30c3e9abd549e89af72355f703f4b2d389e8be3dbb848484426040516102569493929190610ea0565b60405180910390a2505050565b5f5f5f5f8473ffffffffffffffffffffffffffffffffffffffff1673ffffffffffffffffffffffffffffffffffffffff1681526020019081526020015f206004015414159050919050565b5f602052805f5260405f205f91509050805f015f9054906101000a900473ffffffffffffffffffffffffffffffffffffffff16908060010180546102f190610c01565b80601f016020809104026020016040519081016040528092919081815260200182805461031d90610c01565b80156103685780601f1061033f57610100808354040283529160200191610368565b820191905f5260205f20905b81548152906001019060200180831161034b57829003601f168201915b50505050509080600201805461037d90610c01565b80601f01602080910402602001604051908101604052809291908181526020018280546103a990610c01565b80156103f45780601f106103cb576101008083540402835291602001916103f4565b820191905f5260205f20905b8154815290600101906020018083116103d757829003601f168201915b50505050509080600301805461040990610c01565b80601f016020809104026020016040519081016040528092919081815260200182805461043590610c01565b80156104805780601f1061045757610100808354040283529160200191610480565b820191905f5260205f20905b81548152906001019060200180831161046357829003601f168201915b5050505050908060040154905085565b6104986106f4565b5f5f8373ffffffffffffffffffffffffffffffffffffffff1673ffffffffffffffffffffffffffffffffffffffff1681526020019081526020015f206040518060a00160405290815f82015f9054906101000a900473ffffffffffffffffffffffffffffffffffffffff1673ffffffffffffffffffffffffffffffffffffffff1673ffffffffffffffffffffffffffffffffffffffff16815260200160018201805461054390610c01565b80601f016020809104026020016040519081016040528092919081815260200182805461056f90610c01565b80156105ba5780601f10610591576101008083540402835291602001916105ba565b820191905f5260205f20905b81548152906001019060200180831161059d57829003601f168201915b505050505081526020016002820180546105d390610c01565b80601f01602080910402602001604051908101604052809291908181526020018280546105ff90610c01565b801561064a5780601f106106215761010080835404028352916020019161064a565b820191905f5260205f20905b81548152906001019060200180831161062d57829003601f168201915b5050505050815260200160038201805461066390610c01565b80601f016020809104026020016040519081016040528092919081815260200182805461068f90610c01565b80156106da5780601f106106b1576101008083540402835291602001916106da565b820191905f5260205f20905b8154815290600101906020018083116106bd57829003601f168201915b505050505081526020016004820154815250509050919050565b6040518060a001604052805f73ffffffffffffffffffffffffffffffffffffffff1681526020016060815260200160608152602001606081526020015f81525090565b5f604051905090565b5f5ffd5b5f5ffd5b5f5ffd5b5f5ffd5b5f601f19601f8301169050919050565b7f4e487b71000000000000000000000000000000000000000000000000000000005f52604160045260245ffd5b61079682610750565b810181811067ffffffffffffffff821117156107b5576107b4610760565b5b80604052505050565b5f6107c7610737565b90506107d3828261078d565b919050565b5f67ffffffffffffffff8211156107f2576107f1610760565b5b6107fb82610750565b9050602081019050919050565b828183375f83830152505050565b5f610828610823846107d8565b6107be565b9050828152602081018484840111156108445761084361074c565b5b61084f848285610808565b509392505050565b5f82601f83011261086b5761086a610748565b5b813561087b848260208601610816565b91505092915050565b5f5f5f6060848603121561089b5761089a610740565b5b5f84013567ffffffffffffffff8111156108b8576108b7610744565b5b6108c486828701610857565b935050602084013567ffffffffffffffff8111156108e5576108e4610744565b5b6108f186828701610857565b925050604084013567ffffffffffffffff81111561091257610911610744565b5b61091e86828701610857565b9150509250925092565b5f73ffffffffffffffffffffffffffffffffffffffff82169050919050565b5f61095182610928565b9050919050565b61096181610947565b811461096b575f5ffd5b50565b5f8135905061097c81610958565b92915050565b5f6020828403121561099757610996610740565b5b5f6109a48482850161096e565b91505092915050565b5f8115159050919050565b6109c1816109ad565b82525050565b5f6020820190506109da5f8301846109b8565b92915050565b6109e981610947565b82525050565b5f81519050919050565b5f82825260208201905092915050565b8281835e5f83830152505050565b5f610a21826109ef565b610a2b81856109f9565b9350610a3b818560208601610a09565b610a4481610750565b840191505092915050565b5f819050919050565b610a6181610a4f565b82525050565b5f60a082019050610a7a5f8301886109e0565b8181036020830152610a8c8187610a17565b90508181036040830152610aa08186610a17565b90508181036060830152610ab48185610a17565b9050610ac36080830184610a58565b9695505050505050565b610ad681610947565b82525050565b5f82825260208201905092915050565b5f610af6826109ef565b610b008185610adc565b9350610b10818560208601610a09565b610b1981610750565b840191505092915050565b610b2d81610a4f565b82525050565b5f60a083015f830151610b485f860182610acd565b5060208301518482036020860152610b608282610aec565b91505060408301518482036040860152610b7a8282610aec565b91505060608301518482036060860152610b948282610aec565b9150506080830151610ba96080860182610b24565b508091505092915050565b5f6020820190508181035f830152610bcc8184610b33565b905092915050565b7f4e487b71000000000000000000000000000000000000000000000000000000005f52602260045260245ffd5b5f6002820490506001821680610c1857607f821691505b602082108103610c2b57610c2a610bd4565b5b50919050565b5f819050815f5260205f209050919050565b5f6020601f8301049050919050565b5f82821b905092915050565b5f60088302610c8d7fffffffffffffffffffffffffffffffffffffffffffffffffffffffffffffffff82610c52565b610c978683610c52565b95508019841693508086168417925050509392505050565b5f819050919050565b5f610cd2610ccd610cc884610a4f565b610caf565b610a4f565b9050919050565b5f819050919050565b610ceb83610cb8565b610cff610cf782610cd9565b848454610c5e565b825550505050565b5f5f905090565b610d16610d07565b610d21818484610ce2565b505050565b5b81811015610d4457610d395f82610d0e565b600181019050610d27565b5050565b601f821115610d8957610d5a81610c31565b610d6384610c43565b81016020851015610d72578190505b610d86610d7e85610c43565b830182610d26565b50505b505050565b5f82821c905092915050565b5f610da95f1984600802610d8e565b1980831691505092915050565b5f610dc18383610d9a565b9150826002028217905092915050565b610dda826109ef565b67ffffffffffffffff811115610df357610df2610760565b5b610dfd8254610c01565b610e08828285610d48565b5f60209050601f831160018114610e39575f8415610e27578287015190505b610e318582610db6565b865550610e98565b601f198416610e4786610c31565b5f5b82811015610e6e57848901518255600182019150602085019450602081019050610e49565b86831015610e8b5784890151610e87601f891682610d9a565b8355505b6001600288020188555050505b505050505050565b5f6080820190508181035f830152610eb88187610a17565b90508181036020830152610ecc8186610a17565b90508181036040830152610ee08185610a17565b9050610eef6060830184610a58565b9594505050505056fea2646970667358221220c821650d4dedf2aa9e20483717f0e9e41e6e87734970b17051e67be6bee8783e64736f6c634300081e0033","linkReferences":{}},"methodIdentifiers":{"blessings(address)":"817dd7dc","getBlessing(address)":"fd577be7","isBlessed(address)":"428a9f7d","registerNode(string,string,string)":"39817edb"},"id":4}