{"abi":[{"type":"function","name":"logOverride","inputs":[{"name":"steward","type":"address","internalType":"address"},{"name":"amount","type":"uint256","internalType":"uint256"},{"name":"reason","type":"string","internalType":"string"}],"outputs":[],"stateMutability":"nonpayable"},{"type":"event","name":"OverrideLogged","inputs":[{"name":"steward","type":"address","indexed":true,"internalType":"address"},{"name":"amount","type":"uint256","indexed":false,"internalType":"uint256"},{"name":"reason","type":"string","indexed":false,"internalType":"string"},{"name":"timestamp","type":"uint256","indexed":false,"internalType":"uint256"}],"anonymous":false}],"bytecode":{"object":"0x6080604052348015600e575f5ffd5b506103c78061001c5f395ff3fe608060405234801561000f575f5ffd5b5060043610610029575f3560e01c80639633f5a21461002d575b5f5ffd5b6100476004803603810190610042919061027a565b610049565b005b8273ffffffffffffffffffffffffffffffffffffffff167fd696c3539b83f2fc885539370080a6326c87467ef29292ee527b908d8cb3327283834260405161009393929190610355565b60405180910390a2505050565b5f604051905090565b5f5ffd5b5f5ffd5b5f73ffffffffffffffffffffffffffffffffffffffff82169050919050565b5f6100da826100b1565b9050919050565b6100ea816100d0565b81146100f4575f5ffd5b50565b5f81359050610105816100e1565b92915050565b5f819050919050565b61011d8161010b565b8114610127575f5ffd5b50565b5f8135905061013881610114565b92915050565b5f5ffd5b5f5ffd5b5f601f19601f8301169050919050565b7f4e487b71000000000000000000000000000000000000000000000000000000005f52604160045260245ffd5b61018c82610146565b810181811067ffffffffffffffff821117156101ab576101aa610156565b5b80604052505050565b5f6101bd6100a0565b90506101c98282610183565b919050565b5f67ffffffffffffffff8211156101e8576101e7610156565b5b6101f182610146565b9050602081019050919050565b828183375f83830152505050565b5f61021e610219846101ce565b6101b4565b90508281526020810184848401111561023a57610239610142565b5b6102458482856101fe565b509392505050565b5f82601f8301126102615761026061013e565b5b813561027184826020860161020c565b91505092915050565b5f5f5f60608486031215610291576102906100a9565b5b5f61029e868287016100f7565b93505060206102af8682870161012a565b925050604084013567ffffffffffffffff8111156102d0576102cf6100ad565b5b6102dc8682870161024d565b9150509250925092565b6102ef8161010b565b82525050565b5f81519050919050565b5f82825260208201905092915050565b8281835e5f83830152505050565b5f610327826102f5565b61033181856102ff565b935061034181856020860161030f565b61034a81610146565b840191505092915050565b5f6060820190506103685f8301866102e6565b818103602083015261037a818561031d565b905061038960408301846102e6565b94935050505056fea264697066735822122079d087c8ed10206ff4d0d1a3bb36e51849554609a2fff54a1c3e9e66194920d764736f6c634300081e0033","linkReferences":{}},"methodIdentifiers":{"logOverride(address,uint256,string)":"9633f5a2"},"id":0}