{"abi":[{"type":"function","name":"blessVendor","inputs":[{"name":"vendor","type":"address","internalType":"address"},{"name":"tag","type":"string","internalType":"string"},{"name":"emotionalAPR","type":"uint256","internalType":"uint256"},{"name":"treatyRef","type":"string","internalType":"string"}],"outputs":[],"stateMutability":"nonpayable"},{"type":"function","name":"getBlessing","inputs":[{"name":"vendor","type":"address","internalType":"address"}],"outputs":[{"name":"tag","type":"string","internalType":"string"},{"name":"emotionalAPR","type":"uint256","internalType":"uint256"},{"name":"treatyRef","type":"string","internalType":"string"},{"name":"timestamp","type":"uint256","internalType":"uint256"},{"name":"active","type":"bool","internalType":"bool"}],"stateMutability":"view"},{"type":"function","name":"isBlessed","inputs":[{"name":"vendor","type":"address","internalType":"address"}],"outputs":[{"name":"","type":"bool","internalType":"bool"}],"stateMutability":"view"},{"type":"function","name":"revokeBlessing","inputs":[{"name":"vendor","type":"address","internalType":"address"},{"name":"reason","type":"string","internalType":"string"}],"outputs":[],"stateMutability":"nonpayable"},{"type":"function","name":"vendorBlessings","inputs":[{"name":"","type":"address","internalType":"address"}],"outputs":[{"name":"tag","type":"string","internalType":"string"},{"name":"emotionalAPR","type":"uint256","internalType":"uint256"},{"name":"treatyRef","type":"string","internalType":"string"},{"name":"timestamp","type":"uint256","internalType":"uint256"},{"name":"active","type":"bool","internalType":"bool"}],"stateMutability":"view"},{"type":"event","name":"BlessingRestored","inputs":[{"name":"vendor","type":"address","indexed":true,"internalType":"address"},{"name":"tag","type":"string","indexed":false,"internalType":"string"},{"name":"emotionalAPR","type":"uint256","indexed":false,"internalType":"uint256"},{"name":"treatyRef","type":"string","indexed":false,"internalType":"string"},{"name":"timestamp","type":"uint256","indexed":false,"internalType":"uint256"}],"anonymous":false},{"type":"event","name":"BlessingRevoked","inputs":[{"name":"vendor","type":"address","indexed":true,"internalType":"address"},{"name":"reason","type":"string","indexed":false,"internalType":"string"},{"name":"timestamp","type":"uint256","indexed":false,"internalType":"uint256"}],"anonymous":false}],"bytecode":{"object":"0x6080604052348015600e575f5ffd5b50610f778061001c5f395ff3fe608060405234801561000f575f5ffd5b5060043610610055575f3560e01c8063193161f414610059578063428a9f7d1461008d57806385cb6386146100bd578063c3df6903146100d9578063fd577be7146100f5575b5f5ffd5b610073600480360381019061006e9190610795565b610129565b604051610084959493929190610862565b60405180910390f35b6100a760048036038101906100a29190610795565b610272565b6040516100b491906108c1565b60405180910390f35b6100d760048036038101906100d29190610a06565b6102c6565b005b6100f360048036038101906100ee9190610a8a565b6103fb565b005b61010f600480360381019061010a9190610795565b610560565b604051610120959493929190610862565b60405180910390f35b5f602052805f5260405f205f91509050805f01805461014790610b53565b80601f016020809104026020016040519081016040528092919081815260200182805461017390610b53565b80156101be5780601f10610195576101008083540402835291602001916101be565b820191905f5260205f20905b8154815290600101906020018083116101a157829003601f168201915b5050505050908060010154908060020180546101d990610b53565b80601f016020809104026020016040519081016040528092919081815260200182805461020590610b53565b80156102505780601f1061022757610100808354040283529160200191610250565b820191905f5260205f20905b81548152906001019060200180831161023357829003601f168201915b505050505090806003015490806004015f9054906101000a900460ff16905085565b5f5f5f8373ffffffffffffffffffffffffffffffffffffffff1673ffffffffffffffffffffffffffffffffffffffff1681526020019081526020015f206004015f9054906101000a900460ff169050919050565b5f5f8373ffffffffffffffffffffffffffffffffffffffff1673ffffffffffffffffffffffffffffffffffffffff1681526020019081526020015f206004015f9054906101000a900460ff16610351576040517f08c379a000000000000000000000000000000000000000000000000000000000815260040161034890610bcd565b60405180910390fd5b5f5f5f8473ffffffffffffffffffffffffffffffffffffffff1673ffffffffffffffffffffffffffffffffffffffff1681526020019081526020015f206004015f6101000a81548160ff0219169083151502179055508173ffffffffffffffffffffffffffffffffffffffff167f634471ad465ac8ff09c507eda624244496550784a26fa217d271ccd7809a6f6a82426040516103ef929190610beb565b60405180910390a25050565b6103e8821115610440576040517f08c379a000000000000000000000000000000000000000000000000000000000815260040161043790610c63565b60405180910390fd5b6040518060a00160405280848152602001838152602001828152602001428152602001600115158152505f5f8673ffffffffffffffffffffffffffffffffffffffff1673ffffffffffffffffffffffffffffffffffffffff1681526020019081526020015f205f820151815f0190816104b99190610e21565b506020820151816001015560408201518160020190816104d99190610e21565b50606082015181600301556080820151816004015f6101000a81548160ff0219169083151502179055509050508373ffffffffffffffffffffffffffffffffffffffff167f8af7b400b2df3a147b578fae9c258b8a6a9dbe1280736c134cce93c9e5c76026848484426040516105529493929190610ef0565b60405180910390a250505050565b60605f60605f5f5f5f5f8873ffffffffffffffffffffffffffffffffffffffff1673ffffffffffffffffffffffffffffffffffffffff1681526020019081526020015f206040518060a00160405290815f820180546105be90610b53565b80601f01602080910402602001604051908101604052809291908181526020018280546105ea90610b53565b80156106355780601f1061060c57610100808354040283529160200191610635565b820191905f5260205f20905b81548152906001019060200180831161061857829003601f168201915b505050505081526020016001820154815260200160028201805461065890610b53565b80601f016020809104026020016040519081016040528092919081815260200182805461068490610b53565b80156106cf5780601f106106a6576101008083540402835291602001916106cf565b820191905f5260205f20905b8154815290600101906020018083116106b257829003601f168201915b5050505050815260200160038201548152602001600482015f9054906101000a900460ff1615151515815250509050805f01518160200151826040015183606001518460800151955095509550955095505091939590929450565b5f604051905090565b5f5ffd5b5f5ffd5b5f73ffffffffffffffffffffffffffffffffffffffff82169050919050565b5f6107648261073b565b9050919050565b6107748161075a565b811461077e575f5ffd5b50565b5f8135905061078f8161076b565b92915050565b5f602082840312156107aa576107a9610733565b5b5f6107b784828501610781565b91505092915050565b5f81519050919050565b5f82825260208201905092915050565b8281835e5f83830152505050565b5f601f19601f8301169050919050565b5f610802826107c0565b61080c81856107ca565b935061081c8185602086016107da565b610825816107e8565b840191505092915050565b5f819050919050565b61084281610830565b82525050565b5f8115159050919050565b61085c81610848565b82525050565b5f60a0820190508181035f83015261087a81886107f8565b90506108896020830187610839565b818103604083015261089b81866107f8565b90506108aa6060830185610839565b6108b76080830184610853565b9695505050505050565b5f6020820190506108d45f830184610853565b92915050565b5f5ffd5b5f5ffd5b7f4e487b71000000000000000000000000000000000000000000000000000000005f52604160045260245ffd5b610918826107e8565b810181811067ffffffffffffffff82111715610937576109366108e2565b5b80604052505050565b5f61094961072a565b9050610955828261090f565b919050565b5f67ffffffffffffffff821115610974576109736108e2565b5b61097d826107e8565b9050602081019050919050565b828183375f83830152505050565b5f6109aa6109a58461095a565b610940565b9050828152602081018484840111156109c6576109c56108de565b5b6109d184828561098a565b509392505050565b5f82601f8301126109ed576109ec6108da565b5b81356109fd848260208601610998565b91505092915050565b5f5f60408385031215610a1c57610a1b610733565b5b5f610a2985828601610781565b925050602083013567ffffffffffffffff811115610a4a57610a49610737565b5b610a56858286016109d9565b9150509250929050565b610a6981610830565b8114610a73575f5ffd5b50565b5f81359050610a8481610a60565b92915050565b5f5f5f5f60808587031215610aa257610aa1610733565b5b5f610aaf87828801610781565b945050602085013567ffffffffffffffff811115610ad057610acf610737565b5b610adc878288016109d9565b9350506040610aed87828801610a76565b925050606085013567ffffffffffffffff811115610b0e57610b0d610737565b5b610b1a878288016109d9565b91505092959194509250565b7f4e487b71000000000000000000000000000000000000000000000000000000005f52602260045260245ffd5b5f6002820490506001821680610b6a57607f821691505b602082108103610b7d57610b7c610b26565b5b50919050565b7f56656e646f72206e6f742063757272656e746c7920626c6573736564000000005f82015250565b5f610bb7601c836107ca565b9150610bc282610b83565b602082019050919050565b5f6020820190508181035f830152610be481610bab565b9050919050565b5f6040820190508181035f830152610c0381856107f8565b9050610c126020830184610839565b9392505050565b7f4150522065786365656473206d6178207468726573686f6c64000000000000005f82015250565b5f610c4d6019836107ca565b9150610c5882610c19565b602082019050919050565b5f6020820190508181035f830152610c7a81610c41565b9050919050565b5f819050815f5260205f209050919050565b5f6020601f8301049050919050565b5f82821b905092915050565b5f60088302610cdd7fffffffffffffffffffffffffffffffffffffffffffffffffffffffffffffffff82610ca2565b610ce78683610ca2565b95508019841693508086168417925050509392505050565b5f819050919050565b5f610d22610d1d610d1884610830565b610cff565b610830565b9050919050565b5f819050919050565b610d3b83610d08565b610d4f610d4782610d29565b848454610cae565b825550505050565b5f5f905090565b610d66610d57565b610d71818484610d32565b505050565b5b81811015610d9457610d895f82610d5e565b600181019050610d77565b5050565b601f821115610dd957610daa81610c81565b610db384610c93565b81016020851015610dc2578190505b610dd6610dce85610c93565b830182610d76565b50505b505050565b5f82821c905092915050565b5f610df95f1984600802610dde565b1980831691505092915050565b5f610e118383610dea565b9150826002028217905092915050565b610e2a826107c0565b67ffffffffffffffff811115610e4357610e426108e2565b5b610e4d8254610b53565b610e58828285610d98565b5f60209050601f831160018114610e89575f8415610e77578287015190505b610e818582610e06565b865550610ee8565b601f198416610e9786610c81565b5f5b82811015610ebe57848901518255600182019150602085019450602081019050610e99565b86831015610edb5784890151610ed7601f891682610dea565b8355505b6001600288020188555050505b505050505050565b5f6080820190508181035f830152610f0881876107f8565b9050610f176020830186610839565b8181036040830152610f2981856107f8565b9050610f386060830184610839565b9594505050505056fea2646970667358221220b4495940d55c71bdba9c6931eac1a30db7dca3249d672c62644f273a9f46ff9b64736f6c634300081e0033","linkReferences":{}},"methodIdentifiers":{"blessVendor(address,string,uint256,string)":"c3df6903","getBlessing(address)":"fd577be7","isBlessed(address)":"428a9f7d","revokeBlessing(address,string)":"85cb6386","vendorBlessings(address)":"193161f4"},"id":2}