{"abi":[{"type":"function","name":"blessPayload","inputs":[{"name":"payload","type":"bytes","internalType":"bytes"},{"name":"steward","type":"string","internalType":"string"},{"name":"emotionalAPR","type":"string","internalType":"string"},{"name":"damayClause","type":"bool","internalType":"bool"}],"outputs":[],"stateMutability":"nonpayable"},{"type":"function","name":"getSanctified","inputs":[{"name":"payloadHash","type":"bytes32","internalType":"bytes32"}],"outputs":[{"name":"","type":"tuple","internalType":"struct ScrollSanctifierProtocol.SanctifiedPayload","components":[{"name":"payloadHash","type":"bytes32","internalType":"bytes32"},{"name":"steward","type":"string","internalType":"string"},{"name":"emotionalAPR","type":"string","internalType":"string"},{"name":"damayClause","type":"bool","internalType":"bool"},{"name":"timestamp","type":"uint256","internalType":"uint256"}]}],"stateMutability":"view"},{"type":"function","name":"isBlessed","inputs":[{"name":"payloadHash","type":"bytes32","internalType":"bytes32"}],"outputs":[{"name":"","type":"bool","internalType":"bool"}],"stateMutability":"view"},{"type":"function","name":"sanctified","inputs":[{"name":"","type":"bytes32","internalType":"bytes32"}],"outputs":[{"name":"payloadHash","type":"bytes32","internalType":"bytes32"},{"name":"steward","type":"string","internalType":"string"},{"name":"emotionalAPR","type":"string","internalType":"string"},{"name":"damayClause","type":"bool","internalType":"bool"},{"name":"timestamp","type":"uint256","internalType":"uint256"}],"stateMutability":"view"},{"type":"event","name":"PayloadSanctified","inputs":[{"name":"payloadHash","type":"bytes32","indexed":true,"internalType":"bytes32"},{"name":"steward","type":"string","indexed":false,"internalType":"string"},{"name":"emotionalAPR","type":"string","indexed":false,"internalType":"string"},{"name":"damayClause","type":"bool","indexed":false,"internalType":"bool"},{"name":"timestamp","type":"uint256","indexed":false,"internalType":"uint256"}],"anonymous":false}],"bytecode":{"object":"0x6080604052348015600e575f5ffd5b50610f488061001c5f395ff3fe608060405234801561000f575f5ffd5b506004361061004a575f3560e01c806304d3d1af1461004e5780639303513a1461006a578063ce8cdb871461009a578063ff888fb1146100ce575b5f5ffd5b610068600480360381019061006391906107cc565b6100fe565b005b610084600480360381019061007f91906108b7565b610284565b60405161009191906109f2565b60405180910390f35b6100b460048036038101906100af91906108b7565b6103fb565b6040516100c5959493929190610a87565b60405180910390f35b6100e860048036038101906100e391906108b7565b610544565b6040516100f59190610ae6565b60405180910390f35b5f848051906020012090505f5f5f8381526020019081526020015f20600401541461015e576040517f08c379a000000000000000000000000000000000000000000000000000000000815260040161015590610b49565b60405180910390fd5b61016785610563565b6101a6576040517f08c379a000000000000000000000000000000000000000000000000000000000815260040161019d90610bd7565b60405180910390fd5b6040518060a001604052808281526020018581526020018481526020018315158152602001428152505f5f8381526020019081526020015f205f820151815f015560208201518160010190816101fc9190610df2565b5060408201518160020190816102129190610df2565b506060820151816003015f6101000a81548160ff02191690831515021790555060808201518160040155905050807f6cc157cb352aaebcd8e1d3ef6d6157e357a5e6fae4f5db7c66490541b7a5e688858585426040516102759493929190610ec1565b60405180910390a25050505050565b61028c61057e565b5f5f8381526020019081526020015f206040518060a00160405290815f82015481526020016001820180546102c090610c22565b80601f01602080910402602001604051908101604052809291908181526020018280546102ec90610c22565b80156103375780601f1061030e57610100808354040283529160200191610337565b820191905f5260205f20905b81548152906001019060200180831161031a57829003601f168201915b5050505050815260200160028201805461035090610c22565b80601f016020809104026020016040519081016040528092919081815260200182805461037c90610c22565b80156103c75780601f1061039e576101008083540402835291602001916103c7565b820191905f5260205f20905b8154815290600101906020018083116103aa57829003601f168201915b50505050508152602001600382015f9054906101000a900460ff161515151581526020016004820154815250509050919050565b5f602052805f5260405f205f91509050805f01549080600101805461041f90610c22565b80601f016020809104026020016040519081016040528092919081815260200182805461044b90610c22565b80156104965780601f1061046d57610100808354040283529160200191610496565b820191905f5260205f20905b81548152906001019060200180831161047957829003601f168201915b5050505050908060020180546104ab90610c22565b80601f01602080910402602001604051908101604052809291908181526020018280546104d790610c22565b80156105225780601f106104f957610100808354040283529160200191610522565b820191905f5260205f20905b81548152906001019060200180831161050557829003601f168201915b505050505090806003015f9054906101000a900460ff16908060040154905085565b5f5f5f5f8481526020019081526020015f206004015414159050919050565b5f5f82511180156105775750610800825111155b9050919050565b6040518060a001604052805f815260200160608152602001606081526020015f151581526020015f81525090565b5f604051905090565b5f5ffd5b5f5ffd5b5f5ffd5b5f5ffd5b5f601f19601f8301169050919050565b7f4e487b71000000000000000000000000000000000000000000000000000000005f52604160045260245ffd5b61060b826105c5565b810181811067ffffffffffffffff8211171561062a576106296105d5565b5b80604052505050565b5f61063c6105ac565b90506106488282610602565b919050565b5f67ffffffffffffffff821115610667576106666105d5565b5b610670826105c5565b9050602081019050919050565b828183375f83830152505050565b5f61069d6106988461064d565b610633565b9050828152602081018484840111156106b9576106b86105c1565b5b6106c484828561067d565b509392505050565b5f82601f8301126106e0576106df6105bd565b5b81356106f084826020860161068b565b91505092915050565b5f67ffffffffffffffff821115610713576107126105d5565b5b61071c826105c5565b9050602081019050919050565b5f61073b610736846106f9565b610633565b905082815260208101848484011115610757576107566105c1565b5b61076284828561067d565b509392505050565b5f82601f83011261077e5761077d6105bd565b5b813561078e848260208601610729565b91505092915050565b5f8115159050919050565b6107ab81610797565b81146107b5575f5ffd5b50565b5f813590506107c6816107a2565b92915050565b5f5f5f5f608085870312156107e4576107e36105b5565b5b5f85013567ffffffffffffffff811115610801576108006105b9565b5b61080d878288016106cc565b945050602085013567ffffffffffffffff81111561082e5761082d6105b9565b5b61083a8782880161076a565b935050604085013567ffffffffffffffff81111561085b5761085a6105b9565b5b6108678782880161076a565b9250506060610878878288016107b8565b91505092959194509250565b5f819050919050565b61089681610884565b81146108a0575f5ffd5b50565b5f813590506108b18161088d565b92915050565b5f602082840312156108cc576108cb6105b5565b5b5f6108d9848285016108a3565b91505092915050565b6108eb81610884565b82525050565b5f81519050919050565b5f82825260208201905092915050565b8281835e5f83830152505050565b5f610923826108f1565b61092d81856108fb565b935061093d81856020860161090b565b610946816105c5565b840191505092915050565b61095a81610797565b82525050565b5f819050919050565b61097281610960565b82525050565b5f60a083015f83015161098d5f8601826108e2565b50602083015184820360208601526109a58282610919565b915050604083015184820360408601526109bf8282610919565b91505060608301516109d46060860182610951565b5060808301516109e76080860182610969565b508091505092915050565b5f6020820190508181035f830152610a0a8184610978565b905092915050565b610a1b81610884565b82525050565b5f82825260208201905092915050565b5f610a3b826108f1565b610a458185610a21565b9350610a5581856020860161090b565b610a5e816105c5565b840191505092915050565b610a7281610797565b82525050565b610a8181610960565b82525050565b5f60a082019050610a9a5f830188610a12565b8181036020830152610aac8187610a31565b90508181036040830152610ac08186610a31565b9050610acf6060830185610a69565b610adc6080830184610a78565b9695505050505050565b5f602082019050610af95f830184610a69565b92915050565b7f5061796c6f616420616c72656164792073616e637469666965640000000000005f82015250565b5f610b33601a83610a21565b9150610b3e82610aff565b602082019050919050565b5f6020820190508181035f830152610b6081610b27565b9050919050565b7f5061796c6f6164206c61636b73207472656174792d677261646520636c6172695f8201527f7479000000000000000000000000000000000000000000000000000000000000602082015250565b5f610bc1602283610a21565b9150610bcc82610b67565b604082019050919050565b5f6020820190508181035f830152610bee81610bb5565b9050919050565b7f4e487b71000000000000000000000000000000000000000000000000000000005f52602260045260245ffd5b5f6002820490506001821680610c3957607f821691505b602082108103610c4c57610c4b610bf5565b5b50919050565b5f819050815f5260205f209050919050565b5f6020601f8301049050919050565b5f82821b905092915050565b5f60088302610cae7fffffffffffffffffffffffffffffffffffffffffffffffffffffffffffffffff82610c73565b610cb88683610c73565b95508019841693508086168417925050509392505050565b5f819050919050565b5f610cf3610cee610ce984610960565b610cd0565b610960565b9050919050565b5f819050919050565b610d0c83610cd9565b610d20610d1882610cfa565b848454610c7f565b825550505050565b5f5f905090565b610d37610d28565b610d42818484610d03565b505050565b5b81811015610d6557610d5a5f82610d2f565b600181019050610d48565b5050565b601f821115610daa57610d7b81610c52565b610d8484610c64565b81016020851015610d93578190505b610da7610d9f85610c64565b830182610d47565b50505b505050565b5f82821c905092915050565b5f610dca5f1984600802610daf565b1980831691505092915050565b5f610de28383610dbb565b9150826002028217905092915050565b610dfb826108f1565b67ffffffffffffffff811115610e1457610e136105d5565b5b610e1e8254610c22565b610e29828285610d69565b5f60209050601f831160018114610e5a575f8415610e48578287015190505b610e528582610dd7565b865550610eb9565b601f198416610e6886610c52565b5f5b82811015610e8f57848901518255600182019150602085019450602081019050610e6a565b86831015610eac5784890151610ea8601f891682610dbb565b8355505b6001600288020188555050505b505050505050565b5f6080820190508181035f830152610ed98187610a31565b90508181036020830152610eed8186610a31565b9050610efc6040830185610a69565b610f096060830184610a78565b9594505050505056fea26469706673582212206fea58cf30e7b9889e4ecf55cf3449b4391d163aeacfc160d61be735c64d632e64736f6c634300081e0033","linkReferences":{}},"methodIdentifiers":{"blessPayload(bytes,string,string,bool)":"04d3d1af","getSanctified(bytes32)":"9303513a","isBlessed(bytes32)":"ff888fb1","sanctified(bytes32)":"ce8cdb87"},"id":5}