{"abi":[{"type":"function","name":"declareTreaty","inputs":[{"name":"name","type":"string","internalType":"string"},{"name":"emotion","type":"string","internalType":"string"}],"outputs":[],"stateMutability":"nonpayable"},{"type":"function","name":"treaties","inputs":[{"name":"","type":"uint256","internalType":"uint256"}],"outputs":[{"name":"name","type":"string","internalType":"string"},{"name":"emotion","type":"string","internalType":"string"},{"name":"timestamp","type":"uint256","internalType":"uint256"}],"stateMutability":"view"}],"bytecode":{"object":"0x6080604052348015600e575f5ffd5b506108178061001c5f395ff3fe608060405234801561000f575f5ffd5b5060043610610034575f3560e01c806333fead6914610038578063f81334ea1461006a575b5f5ffd5b610052600480360381019061004d9190610286565b610086565b60405161006193929190610330565b60405180910390f35b610084600480360381019061007f919061049f565b6101c6565b005b5f8181548110610094575f80fd5b905f5260205f2090600302015f91509050805f0180546100b390610542565b80601f01602080910402602001604051908101604052809291908181526020018280546100df90610542565b801561012a5780601f106101015761010080835404028352916020019161012a565b820191905f5260205f20905b81548152906001019060200180831161010d57829003601f168201915b50505050509080600101805461013f90610542565b80601f016020809104026020016040519081016040528092919081815260200182805461016b90610542565b80156101b65780601f1061018d576101008083540402835291602001916101b6565b820191905f5260205f20905b81548152906001019060200180831161019957829003601f168201915b5050505050908060020154905083565b5f604051806060016040528084815260200183815260200142815250908060018154018082558091505060019003905f5260205f2090600302015f909190919091505f820151815f01908161021b9190610712565b5060208201518160010190816102319190610712565b506040820151816002015550505050565b5f604051905090565b5f5ffd5b5f5ffd5b5f819050919050565b61026581610253565b811461026f575f5ffd5b50565b5f813590506102808161025c565b92915050565b5f6020828403121561029b5761029a61024b565b5b5f6102a884828501610272565b91505092915050565b5f81519050919050565b5f82825260208201905092915050565b8281835e5f83830152505050565b5f601f19601f8301169050919050565b5f6102f3826102b1565b6102fd81856102bb565b935061030d8185602086016102cb565b610316816102d9565b840191505092915050565b61032a81610253565b82525050565b5f6060820190508181035f83015261034881866102e9565b9050818103602083015261035c81856102e9565b905061036b6040830184610321565b949350505050565b5f5ffd5b5f5ffd5b7f4e487b71000000000000000000000000000000000000000000000000000000005f52604160045260245ffd5b6103b1826102d9565b810181811067ffffffffffffffff821117156103d0576103cf61037b565b5b80604052505050565b5f6103e2610242565b90506103ee82826103a8565b919050565b5f67ffffffffffffffff82111561040d5761040c61037b565b5b610416826102d9565b9050602081019050919050565b828183375f83830152505050565b5f61044361043e846103f3565b6103d9565b90508281526020810184848401111561045f5761045e610377565b5b61046a848285610423565b509392505050565b5f82601f83011261048657610485610373565b5b8135610496848260208601610431565b91505092915050565b5f5f604083850312156104b5576104b461024b565b5b5f83013567ffffffffffffffff8111156104d2576104d161024f565b5b6104de85828601610472565b925050602083013567ffffffffffffffff8111156104ff576104fe61024f565b5b61050b85828601610472565b9150509250929050565b7f4e487b71000000000000000000000000000000000000000000000000000000005f52602260045260245ffd5b5f600282049050600182168061055957607f821691505b60208210810361056c5761056b610515565b5b50919050565b5f819050815f5260205f209050919050565b5f6020601f8301049050919050565b5f82821b905092915050565b5f600883026105ce7fffffffffffffffffffffffffffffffffffffffffffffffffffffffffffffffff82610593565b6105d88683610593565b95508019841693508086168417925050509392505050565b5f819050919050565b5f61061361060e61060984610253565b6105f0565b610253565b9050919050565b5f819050919050565b61062c836105f9565b6106406106388261061a565b84845461059f565b825550505050565b5f5f905090565b610657610648565b610662818484610623565b505050565b5b818110156106855761067a5f8261064f565b600181019050610668565b5050565b601f8211156106ca5761069b81610572565b6106a484610584565b810160208510156106b3578190505b6106c76106bf85610584565b830182610667565b50505b505050565b5f82821c905092915050565b5f6106ea5f19846008026106cf565b1980831691505092915050565b5f61070283836106db565b9150826002028217905092915050565b61071b826102b1565b67ffffffffffffffff8111156107345761073361037b565b5b61073e8254610542565b610749828285610689565b5f60209050601f83116001811461077a575f8415610768578287015190505b61077285826106f7565b8655506107d9565b601f19841661078886610572565b5f5b828110156107af5784890151825560018201915060208501945060208101905061078a565b868310156107cc57848901516107c8601f8916826106db565b8355505b6001600288020188555050505b50505050505056fea26469706673582212209a93c9d4c763501024a32899eb49c2ac315ece9ffefa3e08a8008690939e392564736f6c634300081e0033","linkReferences":{}},"methodIdentifiers":{"declareTreaty(string,string)":"f81334ea","treaties(uint256)":"33fead69"},"id":3}