{"abi":[{"type":"function","name":"getVendor","inputs":[{"name":"vendor","type":"address","internalType":"address"}],"outputs":[{"name":"","type":"string","internalType":"string"},{"name":"","type":"uint256","internalType":"uint256"},{"name":"","type":"string","internalType":"string"},{"name":"","type":"uint256","internalType":"uint256"}],"stateMutability":"view"},{"type":"function","name":"onboardVendor","inputs":[{"name":"vendor","type":"address","internalType":"address"},{"name":"tag","type":"string","internalType":"string"},{"name":"apr","type":"uint256","internalType":"uint256"},{"name":"treatyRef","type":"string","internalType":"string"}],"outputs":[],"stateMutability":"nonpayable"},{"type":"function","name":"vendors","inputs":[{"name":"","type":"address","internalType":"address"}],"outputs":[{"name":"tag","type":"string","internalType":"string"},{"name":"emotionalAPR","type":"uint256","internalType":"uint256"},{"name":"treatyRef","type":"string","internalType":"string"},{"name":"timestamp","type":"uint256","internalType":"uint256"}],"stateMutability":"view"},{"type":"event","name":"VendorOnboarded","inputs":[{"name":"vendor","type":"address","indexed":true,"internalType":"address"},{"name":"tag","type":"string","indexed":false,"internalType":"string"},{"name":"apr","type":"uint256","indexed":false,"internalType":"uint256"},{"name":"treatyRef","type":"string","indexed":false,"internalType":"string"},{"name":"timestamp","type":"uint256","indexed":false,"internalType":"uint256"}],"anonymous":false}],"bytecode":{"object":"0x6080604052348015600e575f5ffd5b50610baa8061001c5f395ff3fe608060405234801561000f575f5ffd5b506004361061003f575f3560e01c80630bc0f7d31461004357806327e30c36146100765780635ec00dc2146100a9575b5f5ffd5b61005d6004803603810190610058919061054a565b6100c5565b60405161006d94939291906105fd565b60405180910390f35b610090600480360381019061008b919061054a565b61026b565b6040516100a094939291906105fd565b60405180910390f35b6100c360048036038101906100be91906107a4565b6103a2565b005b60605f60605f5f5f5f8773ffffffffffffffffffffffffffffffffffffffff1673ffffffffffffffffffffffffffffffffffffffff1681526020019081526020015f206040518060800160405290815f820180546101229061086d565b80601f016020809104026020016040519081016040528092919081815260200182805461014e9061086d565b80156101995780601f1061017057610100808354040283529160200191610199565b820191905f5260205f20905b81548152906001019060200180831161017c57829003601f168201915b50505050508152602001600182015481526020016002820180546101bc9061086d565b80601f01602080910402602001604051908101604052809291908181526020018280546101e89061086d565b80156102335780601f1061020a57610100808354040283529160200191610233565b820191905f5260205f20905b81548152906001019060200180831161021657829003601f168201915b505050505081526020016003820154815250509050805f01518160200151826040015183606001519450945094509450509193509193565b5f602052805f5260405f205f91509050805f0180546102899061086d565b80601f01602080910402602001604051908101604052809291908181526020018280546102b59061086d565b80156103005780601f106102d757610100808354040283529160200191610300565b820191905f5260205f20905b8154815290600101906020018083116102e357829003601f168201915b50505050509080600101549080600201805461031b9061086d565b80601f01602080910402602001604051908101604052809291908181526020018280546103479061086d565b80156103925780601f1061036957610100808354040283529160200191610392565b820191905f5260205f20905b81548152906001019060200180831161037557829003601f168201915b5050505050908060030154905084565b6103e88211156103e7576040517f08c379a00000000000000000000000000000000000000000000000000000000081526004016103de906108e7565b60405180910390fd5b6040518060800160405280848152602001838152602001828152602001428152505f5f8673ffffffffffffffffffffffffffffffffffffffff1673ffffffffffffffffffffffffffffffffffffffff1681526020019081526020015f205f820151815f0190816104579190610aa5565b506020820151816001015560408201518160020190816104779190610aa5565b50606082015181600301559050508373ffffffffffffffffffffffffffffffffffffffff167f5da92e2ab44ff552b79eba8de610b50d177d5874986905b07ab904fac88bf484848484426040516104d194939291906105fd565b60405180910390a250505050565b5f604051905090565b5f5ffd5b5f5ffd5b5f73ffffffffffffffffffffffffffffffffffffffff82169050919050565b5f610519826104f0565b9050919050565b6105298161050f565b8114610533575f5ffd5b50565b5f8135905061054481610520565b92915050565b5f6020828403121561055f5761055e6104e8565b5b5f61056c84828501610536565b91505092915050565b5f81519050919050565b5f82825260208201905092915050565b8281835e5f83830152505050565b5f601f19601f8301169050919050565b5f6105b782610575565b6105c1818561057f565b93506105d181856020860161058f565b6105da8161059d565b840191505092915050565b5f819050919050565b6105f7816105e5565b82525050565b5f6080820190508181035f83015261061581876105ad565b905061062460208301866105ee565b818103604083015261063681856105ad565b905061064560608301846105ee565b95945050505050565b5f5ffd5b5f5ffd5b7f4e487b71000000000000000000000000000000000000000000000000000000005f52604160045260245ffd5b61068c8261059d565b810181811067ffffffffffffffff821117156106ab576106aa610656565b5b80604052505050565b5f6106bd6104df565b90506106c98282610683565b919050565b5f67ffffffffffffffff8211156106e8576106e7610656565b5b6106f18261059d565b9050602081019050919050565b828183375f83830152505050565b5f61071e610719846106ce565b6106b4565b90508281526020810184848401111561073a57610739610652565b5b6107458482856106fe565b509392505050565b5f82601f8301126107615761076061064e565b5b813561077184826020860161070c565b91505092915050565b610783816105e5565b811461078d575f5ffd5b50565b5f8135905061079e8161077a565b92915050565b5f5f5f5f608085870312156107bc576107bb6104e8565b5b5f6107c987828801610536565b945050602085013567ffffffffffffffff8111156107ea576107e96104ec565b5b6107f68782880161074d565b935050604061080787828801610790565b925050606085013567ffffffffffffffff811115610828576108276104ec565b5b6108348782880161074d565b91505092959194509250565b7f4e487b71000000000000000000000000000000000000000000000000000000005f52602260045260245ffd5b5f600282049050600182168061088457607f821691505b60208210810361089757610896610840565b5b50919050565b7f4150522065786365656473206d6178207468726573686f6c64000000000000005f82015250565b5f6108d160198361057f565b91506108dc8261089d565b602082019050919050565b5f6020820190508181035f8301526108fe816108c5565b9050919050565b5f819050815f5260205f209050919050565b5f6020601f8301049050919050565b5f82821b905092915050565b5f600883026109617fffffffffffffffffffffffffffffffffffffffffffffffffffffffffffffffff82610926565b61096b8683610926565b95508019841693508086168417925050509392505050565b5f819050919050565b5f6109a66109a161099c846105e5565b610983565b6105e5565b9050919050565b5f819050919050565b6109bf8361098c565b6109d36109cb826109ad565b848454610932565b825550505050565b5f5f905090565b6109ea6109db565b6109f58184846109b6565b505050565b5b81811015610a1857610a0d5f826109e2565b6001810190506109fb565b5050565b601f821115610a5d57610a2e81610905565b610a3784610917565b81016020851015610a46578190505b610a5a610a5285610917565b8301826109fa565b50505b505050565b5f82821c905092915050565b5f610a7d5f1984600802610a62565b1980831691505092915050565b5f610a958383610a6e565b9150826002028217905092915050565b610aae82610575565b67ffffffffffffffff811115610ac757610ac6610656565b5b610ad1825461086d565b610adc828285610a1c565b5f60209050601f831160018114610b0d575f8415610afb578287015190505b610b058582610a8a565b865550610b6c565b601f198416610b1b86610905565b5f5b82811015610b4257848901518255600182019150602085019450602081019050610b1d565b86831015610b5f5784890151610b5b601f891682610a6e565b8355505b6001600288020188555050505b50505050505056fea264697066735822122016761d5d46b6b2f4b4696b9dc8b01728f4f7a3ef851a14e0ab433185b680d96664736f6c634300081e0033","linkReferences":{}},"methodIdentifiers":{"getVendor(address)":"0bc0f7d3","onboardVendor(address,string,uint256,string)":"5ec00dc2","vendors(address)":"27e30c36"},"id":1}