{"abi":[{"type":"function","name":"blessVendor","inputs":[{"name":"vendor","type":"address","internalType":"address"},{"name":"tag","type":"string","internalType":"string"},{"name":"emotionalAPR","type":"uint256","internalType":"uint256"}],"outputs":[],"stateMutability":"nonpayable"},{"type":"function","name":"getBlessing","inputs":[{"name":"vendor","type":"address","internalType":"address"}],"outputs":[{"name":"","type":"string","internalType":"string"},{"name":"","type":"uint256","internalType":"uint256"},{"name":"","type":"uint256","internalType":"uint256"}],"stateMutability":"view"},{"type":"function","name":"isBlessed","inputs":[{"name":"vendor","type":"address","internalType":"address"}],"outputs":[{"name":"","type":"bool","internalType":"bool"}],"stateMutability":"view"},{"type":"function","name":"vendorBlessings","inputs":[{"name":"","type":"address","internalType":"address"}],"outputs":[{"name":"tag","type":"string","internalType":"string"},{"name":"emotionalAPR","type":"uint256","internalType":"uint256"},{"name":"timestamp","type":"uint256","internalType":"uint256"}],"stateMutability":"view"},{"type":"event","name":"VendorBlessed","inputs":[{"name":"vendor","type":"address","indexed":true,"internalType":"address"},{"name":"blessingTag","type":"string","indexed":false,"internalType":"string"},{"name":"emotionalAPR","type":"uint256","indexed":false,"internalType":"uint256"},{"name":"timestamp","type":"uint256","indexed":false,"internalType":"uint256"}],"anonymous":false}],"bytecode":{"object":"0x6080604052348015600e575f5ffd5b50610ad88061001c5f395ff3fe608060405234801561000f575f5ffd5b506004361061004a575f3560e01c8063193161f41461004e578063428a9f7d14610080578063618f3cf9146100b0578063fd577be7146100cc575b5f5ffd5b6100686004803603810190610063919061048a565b6100fe565b6040516100779392919061053d565b60405180910390f35b61009a6004803603810190610095919061048a565b6101a9565b6040516100a79190610593565b60405180910390f35b6100ca60048036038101906100c59190610702565b6101f4565b005b6100e660048036038101906100e1919061048a565b610312565b6040516100f59392919061053d565b60405180910390f35b5f602052805f5260405f205f91509050805f01805461011c9061079b565b80601f01602080910402602001604051908101604052809291908181526020018280546101489061079b565b80156101935780601f1061016a57610100808354040283529160200191610193565b820191905f5260205f20905b81548152906001019060200180831161017657829003601f168201915b5050505050908060010154908060020154905083565b5f5f5f5f8473ffffffffffffffffffffffffffffffffffffffff1673ffffffffffffffffffffffffffffffffffffffff1681526020019081526020015f206002015414159050919050565b6103e8811115610239576040517f08c379a000000000000000000000000000000000000000000000000000000000815260040161023090610815565b60405180910390fd5b6040518060600160405280838152602001828152602001428152505f5f8573ffffffffffffffffffffffffffffffffffffffff1673ffffffffffffffffffffffffffffffffffffffff1681526020019081526020015f205f820151815f0190816102a391906109d3565b5060208201518160010155604082015181600201559050508273ffffffffffffffffffffffffffffffffffffffff167f84322edaed4e0689aa2cd31b021ec5f8ce26d6b4ed34851dd327465c01e2f2548383426040516103059392919061053d565b60405180910390a2505050565b60605f5f5f5f5f8673ffffffffffffffffffffffffffffffffffffffff1673ffffffffffffffffffffffffffffffffffffffff1681526020019081526020015f206040518060600160405290815f8201805461036d9061079b565b80601f01602080910402602001604051908101604052809291908181526020018280546103999061079b565b80156103e45780601f106103bb576101008083540402835291602001916103e4565b820191905f5260205f20905b8154815290600101906020018083116103c757829003601f168201915b50505050508152602001600182015481526020016002820154815250509050805f015181602001518260400151935093509350509193909250565b5f604051905090565b5f5ffd5b5f5ffd5b5f73ffffffffffffffffffffffffffffffffffffffff82169050919050565b5f61045982610430565b9050919050565b6104698161044f565b8114610473575f5ffd5b50565b5f8135905061048481610460565b92915050565b5f6020828403121561049f5761049e610428565b5b5f6104ac84828501610476565b91505092915050565b5f81519050919050565b5f82825260208201905092915050565b8281835e5f83830152505050565b5f601f19601f8301169050919050565b5f6104f7826104b5565b61050181856104bf565b93506105118185602086016104cf565b61051a816104dd565b840191505092915050565b5f819050919050565b61053781610525565b82525050565b5f6060820190508181035f83015261055581866104ed565b9050610564602083018561052e565b610571604083018461052e565b949350505050565b5f8115159050919050565b61058d81610579565b82525050565b5f6020820190506105a65f830184610584565b92915050565b5f5ffd5b5f5ffd5b7f4e487b71000000000000000000000000000000000000000000000000000000005f52604160045260245ffd5b6105ea826104dd565b810181811067ffffffffffffffff82111715610609576106086105b4565b5b80604052505050565b5f61061b61041f565b905061062782826105e1565b919050565b5f67ffffffffffffffff821115610646576106456105b4565b5b61064f826104dd565b9050602081019050919050565b828183375f83830152505050565b5f61067c6106778461062c565b610612565b905082815260208101848484011115610698576106976105b0565b5b6106a384828561065c565b509392505050565b5f82601f8301126106bf576106be6105ac565b5b81356106cf84826020860161066a565b91505092915050565b6106e181610525565b81146106eb575f5ffd5b50565b5f813590506106fc816106d8565b92915050565b5f5f5f6060848603121561071957610718610428565b5b5f61072686828701610476565b935050602084013567ffffffffffffffff8111156107475761074661042c565b5b610753868287016106ab565b9250506040610764868287016106ee565b9150509250925092565b7f4e487b71000000000000000000000000000000000000000000000000000000005f52602260045260245ffd5b5f60028204905060018216806107b257607f821691505b6020821081036107c5576107c461076e565b5b50919050565b7f4150522065786365656473206d6178207468726573686f6c64000000000000005f82015250565b5f6107ff6019836104bf565b915061080a826107cb565b602082019050919050565b5f6020820190508181035f83015261082c816107f3565b9050919050565b5f819050815f5260205f209050919050565b5f6020601f8301049050919050565b5f82821b905092915050565b5f6008830261088f7fffffffffffffffffffffffffffffffffffffffffffffffffffffffffffffffff82610854565b6108998683610854565b95508019841693508086168417925050509392505050565b5f819050919050565b5f6108d46108cf6108ca84610525565b6108b1565b610525565b9050919050565b5f819050919050565b6108ed836108ba565b6109016108f9826108db565b848454610860565b825550505050565b5f5f905090565b610918610909565b6109238184846108e4565b505050565b5b818110156109465761093b5f82610910565b600181019050610929565b5050565b601f82111561098b5761095c81610833565b61096584610845565b81016020851015610974578190505b61098861098085610845565b830182610928565b50505b505050565b5f82821c905092915050565b5f6109ab5f1984600802610990565b1980831691505092915050565b5f6109c3838361099c565b9150826002028217905092915050565b6109dc826104b5565b67ffffffffffffffff8111156109f5576109f46105b4565b5b6109ff825461079b565b610a0a82828561094a565b5f60209050601f831160018114610a3b575f8415610a29578287015190505b610a3385826109b8565b865550610a9a565b601f198416610a4986610833565b5f5b82811015610a7057848901518255600182019150602085019450602081019050610a4b565b86831015610a8d5784890151610a89601f89168261099c565b8355505b6001600288020188555050505b50505050505056fea2646970667358221220fb0bdcc0eaae6d2dbeaa6fd42f1fe4c3a514895fa437b1875d60df4007e8b71e64736f6c634300081e0033","linkReferences":{}},"methodIdentifiers":{"blessVendor(address,string,uint256)":"618f3cf9","getBlessing(address)":"fd577be7","isBlessed(address)":"428a9f7d","vendorBlessings(address)":"193161f4"},"id":1}