{"abi":[{"type":"function","name":"auditLog","inputs":[{"name":"","type":"bytes32","internalType":"bytes32"}],"outputs":[{"name":"payloadHash","type":"bytes32","internalType":"bytes32"},{"name":"risk","type":"uint8","internalType":"enum ImmutableContentAudit.RiskLevel"},{"name":"emotionalAPR","type":"string","internalType":"string"},{"name":"timestamp","type":"uint256","internalType":"uint256"}],"stateMutability":"view"},{"type":"function","name":"getAudit","inputs":[{"name":"payloadHash","type":"bytes32","internalType":"bytes32"}],"outputs":[{"name":"","type":"tuple","internalType":"struct ImmutableContentAudit.PayloadAudit","components":[{"name":"payloadHash","type":"bytes32","internalType":"bytes32"},{"name":"risk","type":"uint8","internalType":"enum ImmutableContentAudit.RiskLevel"},{"name":"emotionalAPR","type":"string","internalType":"string"},{"name":"timestamp","type":"uint256","internalType":"uint256"}]}],"stateMutability":"view"},{"type":"function","name":"submitPayload","inputs":[{"name":"payload","type":"bytes","internalType":"bytes"},{"name":"emotionalAPR","type":"string","internalType":"string"}],"outputs":[{"name":"risk","type":"uint8","internalType":"enum ImmutableContentAudit.RiskLevel"}],"stateMutability":"nonpayable"},{"type":"event","name":"PayloadTagged","inputs":[{"name":"payloadHash","type":"bytes32","indexed":true,"internalType":"bytes32"},{"name":"risk","type":"uint8","indexed":false,"internalType":"enum ImmutableContentAudit.RiskLevel"},{"name":"emotionalAPR","type":"string","indexed":false,"internalType":"string"},{"name":"timestamp","type":"uint256","indexed":false,"internalType":"uint256"}],"anonymous":false}],"bytecode":{"object":"0x6080604052348015600e575f5ffd5b50610f5e8061001c5f395ff3fe608060405234801561000f575f5ffd5b506004361061003f575f3560e01c8063312a6eac14610043578063a1654ef014610073578063c3ec5073146100a6575b5f5ffd5b61005d6004803603810190610058919061062b565b6100d6565b60405161006a91906107c0565b60405180910390f35b61008d6004803603810190610088919061062b565b6101dd565b60405161009d9493929190610855565b60405180910390f35b6100c060048036038101906100bb9190610a69565b61029a565b6040516100cd9190610adf565b60405180910390f35b6100de6105b0565b5f5f8381526020019081526020015f206040518060800160405290815f8201548152602001600182015f9054906101000a900460ff16600281111561012657610125610665565b5b600281111561013857610137610665565b5b815260200160028201805461014c90610b25565b80601f016020809104026020016040519081016040528092919081815260200182805461017890610b25565b80156101c35780601f1061019a576101008083540402835291602001916101c3565b820191905f5260205f20905b8154815290600101906020018083116101a657829003601f168201915b505050505081526020016003820154815250509050919050565b5f602052805f5260405f205f91509050805f015490806001015f9054906101000a900460ff169080600201805461021390610b25565b80601f016020809104026020016040519081016040528092919081815260200182805461023f90610b25565b801561028a5780601f106102615761010080835404028352916020019161028a565b820191905f5260205f20905b81548152906001019060200180831161026d57829003601f168201915b5050505050908060030154905084565b5f5f838051906020012090505f5f5f8381526020019081526020015f2060030154146102fb576040517f08c379a00000000000000000000000000000000000000000000000000000000081526004016102f290610b9f565b60405180910390fd5b610304846103e6565b9150604051806080016040528082815260200183600281111561032a57610329610665565b5b8152602001848152602001428152505f5f8381526020019081526020015f205f820151815f01556020820151816001015f6101000a81548160ff0219169083600281111561037b5761037a610665565b5b021790555060408201518160020190816103959190610d5d565b5060608201518160030155905050807fbfe4af64d21a1d75a6a81bbee277f8ebc0408e3f07a69ae7b0e081cf85e42c4a8385426040516103d793929190610e2c565b60405180910390a25092915050565b5f610400825111156103fb5760019050610416565b6104048261041b565b156104125760029050610416565b5f90505b919050565b5f5f5f90505b6003835161042f9190610e95565b8110156105a65760de60f81b83828151811061044e5761044d610ec8565b5b602001015160f81c60f81b7effffffffffffffffffffffffffffffffffffffffffffffffffffffffffffff19161480156104d6575060ad60f81b836001836104969190610ef5565b815181106104a7576104a6610ec8565b5b602001015160f81c60f81b7effffffffffffffffffffffffffffffffffffffffffffffffffffffffffffff1916145b8015610530575060be60f81b836002836104f09190610ef5565b8151811061050157610500610ec8565b5b602001015160f81c60f81b7effffffffffffffffffffffffffffffffffffffffffffffffffffffffffffff1916145b801561058a575060ef60f81b8360038361054a9190610ef5565b8151811061055b5761055a610ec8565b5b602001015160f81c60f81b7effffffffffffffffffffffffffffffffffffffffffffffffffffffffffffff1916145b156105995760019150506105ab565b8080600101915050610421565b505f90505b919050565b60405180608001604052805f81526020015f60028111156105d4576105d3610665565b5b8152602001606081526020015f81525090565b5f604051905090565b5f5ffd5b5f5ffd5b5f819050919050565b61060a816105f8565b8114610614575f5ffd5b50565b5f8135905061062581610601565b92915050565b5f602082840312156106405761063f6105f0565b5b5f61064d84828501610617565b91505092915050565b61065f816105f8565b82525050565b7f4e487b71000000000000000000000000000000000000000000000000000000005f52602160045260245ffd5b600381106106a3576106a2610665565b5b50565b5f8190506106b382610692565b919050565b5f6106c2826106a6565b9050919050565b6106d2816106b8565b82525050565b5f81519050919050565b5f82825260208201905092915050565b8281835e5f83830152505050565b5f601f19601f8301169050919050565b5f61071a826106d8565b61072481856106e2565b93506107348185602086016106f2565b61073d81610700565b840191505092915050565b5f819050919050565b61075a81610748565b82525050565b5f608083015f8301516107755f860182610656565b50602083015161078860208601826106c9565b50604083015184820360408601526107a08282610710565b91505060608301516107b56060860182610751565b508091505092915050565b5f6020820190508181035f8301526107d88184610760565b905092915050565b6107e9816105f8565b82525050565b6107f8816106b8565b82525050565b5f82825260208201905092915050565b5f610818826106d8565b61082281856107fe565b93506108328185602086016106f2565b61083b81610700565b840191505092915050565b61084f81610748565b82525050565b5f6080820190506108685f8301876107e0565b61087560208301866107ef565b8181036040830152610887818561080e565b90506108966060830184610846565b95945050505050565b5f5ffd5b5f5ffd5b7f4e487b71000000000000000000000000000000000000000000000000000000005f52604160045260245ffd5b6108dd82610700565b810181811067ffffffffffffffff821117156108fc576108fb6108a7565b5b80604052505050565b5f61090e6105e7565b905061091a82826108d4565b919050565b5f67ffffffffffffffff821115610939576109386108a7565b5b61094282610700565b9050602081019050919050565b828183375f83830152505050565b5f61096f61096a8461091f565b610905565b90508281526020810184848401111561098b5761098a6108a3565b5b61099684828561094f565b509392505050565b5f82601f8301126109b2576109b161089f565b5b81356109c284826020860161095d565b91505092915050565b5f67ffffffffffffffff8211156109e5576109e46108a7565b5b6109ee82610700565b9050602081019050919050565b5f610a0d610a08846109cb565b610905565b905082815260208101848484011115610a2957610a286108a3565b5b610a3484828561094f565b509392505050565b5f82601f830112610a5057610a4f61089f565b5b8135610a608482602086016109fb565b91505092915050565b5f5f60408385031215610a7f57610a7e6105f0565b5b5f83013567ffffffffffffffff811115610a9c57610a9b6105f4565b5b610aa88582860161099e565b925050602083013567ffffffffffffffff811115610ac957610ac86105f4565b5b610ad585828601610a3c565b9150509250929050565b5f602082019050610af25f8301846107ef565b92915050565b7f4e487b71000000000000000000000000000000000000000000000000000000005f52602260045260245ffd5b5f6002820490506001821680610b3c57607f821691505b602082108103610b4f57610b4e610af8565b5b50919050565b7f5061796c6f616420616c726561647920617564697465640000000000000000005f82015250565b5f610b896017836107fe565b9150610b9482610b55565b602082019050919050565b5f6020820190508181035f830152610bb681610b7d565b9050919050565b5f819050815f5260205f209050919050565b5f6020601f8301049050919050565b5f82821b905092915050565b5f60088302610c197fffffffffffffffffffffffffffffffffffffffffffffffffffffffffffffffff82610bde565b610c238683610bde565b95508019841693508086168417925050509392505050565b5f819050919050565b5f610c5e610c59610c5484610748565b610c3b565b610748565b9050919050565b5f819050919050565b610c7783610c44565b610c8b610c8382610c65565b848454610bea565b825550505050565b5f5f905090565b610ca2610c93565b610cad818484610c6e565b505050565b5b81811015610cd057610cc55f82610c9a565b600181019050610cb3565b5050565b601f821115610d1557610ce681610bbd565b610cef84610bcf565b81016020851015610cfe578190505b610d12610d0a85610bcf565b830182610cb2565b50505b505050565b5f82821c905092915050565b5f610d355f1984600802610d1a565b1980831691505092915050565b5f610d4d8383610d26565b9150826002028217905092915050565b610d66826106d8565b67ffffffffffffffff811115610d7f57610d7e6108a7565b5b610d898254610b25565b610d94828285610cd4565b5f60209050601f831160018114610dc5575f8415610db3578287015190505b610dbd8582610d42565b865550610e24565b601f198416610dd386610bbd565b5f5b82811015610dfa57848901518255600182019150602085019450602081019050610dd5565b86831015610e175784890151610e13601f891682610d26565b8355505b6001600288020188555050505b505050505050565b5f606082019050610e3f5f8301866107ef565b8181036020830152610e51818561080e565b9050610e606040830184610846565b949350505050565b7f4e487b71000000000000000000000000000000000000000000000000000000005f52601160045260245ffd5b5f610e9f82610748565b9150610eaa83610748565b9250828203905081811115610ec257610ec1610e68565b5b92915050565b7f4e487b71000000000000000000000000000000000000000000000000000000005f52603260045260245ffd5b5f610eff82610748565b9150610f0a83610748565b9250828201905080821115610f2257610f21610e68565b5b9291505056fea264697066735822122052e51c638d11d728468d33eb4f31caaefbbc8f4e525917dd409ef93d5023076f64736f6c634300081e0033","linkReferences":{}},"methodIdentifiers":{"auditLog(bytes32)":"a1654ef0","getAudit(bytes32)":"312a6eac","submitPayload(bytes,string)":"c3ec5073"},"id":2}