{"abi":[{"type":"constructor","inputs":[{"name":"revocationAddress","type":"address","internalType":"address"}],"stateMutability":"nonpayable"},{"type":"function","name":"getVendorBlessing","inputs":[{"name":"vendor","type":"address","internalType":"address"}],"outputs":[{"name":"tag","type":"string","internalType":"string"},{"name":"emotionalAPR","type":"uint256","internalType":"uint256"},{"name":"treatyRef","type":"string","internalType":"string"},{"name":"timestamp","type":"uint256","internalType":"uint256"},{"name":"active","type":"bool","internalType":"bool"}],"stateMutability":"view"},{"type":"function","name":"isVendorActive","inputs":[{"name":"vendor","type":"address","internalType":"address"}],"outputs":[{"name":"","type":"bool","internalType":"bool"}],"stateMutability":"view"},{"type":"function","name":"revocation","inputs":[],"outputs":[{"name":"","type":"address","internalType":"contract BlessingRevocationProtocol"}],"stateMutability":"view"}],"bytecode":{"object":"0x608060405234801561000f575f5ffd5b50604051610818380380610818833981810160405281019061003191906100d4565b805f5f6101000a81548173ffffffffffffffffffffffffffffffffffffffff021916908373ffffffffffffffffffffffffffffffffffffffff160217905550506100ff565b5f5ffd5b5f73ffffffffffffffffffffffffffffffffffffffff82169050919050565b5f6100a38261007a565b9050919050565b6100b381610099565b81146100bd575f5ffd5b50565b5f815190506100ce816100aa565b92915050565b5f602082840312156100e9576100e8610076565b5b5f6100f6848285016100c0565b91505092915050565b61070c8061010c5f395ff3fe608060405234801561000f575f5ffd5b506004361061003f575f3560e01c806309334db6146100435780631090e4bc146100735780638597a9c3146100a7575b5f5ffd5b61005d600480360381019061005891906102a9565b6100c5565b60405161006a91906102ee565b60405180910390f35b61008d600480360381019061008891906102a9565b610165565b60405161009e95949392919061038f565b60405180910390f35b6100af61021a565b6040516100bc9190610449565b60405180910390f35b5f5f5f9054906101000a900473ffffffffffffffffffffffffffffffffffffffff1673ffffffffffffffffffffffffffffffffffffffff1663428a9f7d836040518263ffffffff1660e01b815260040161011f9190610471565b602060405180830381865afa15801561013a573d5f5f3e3d5ffd5b505050506040513d601f19601f8201168201806040525081019061015e91906104b4565b9050919050565b60605f60605f5f5f5f9054906101000a900473ffffffffffffffffffffffffffffffffffffffff1673ffffffffffffffffffffffffffffffffffffffff1663fd577be7876040518263ffffffff1660e01b81526004016101c59190610471565b5f60405180830381865afa1580156101df573d5f5f3e3d5ffd5b505050506040513d5f823e3d601f19601f820116820180604052508101906102079190610627565b9450945094509450945091939590929450565b5f5f9054906101000a900473ffffffffffffffffffffffffffffffffffffffff1681565b5f604051905090565b5f5ffd5b5f5ffd5b5f73ffffffffffffffffffffffffffffffffffffffff82169050919050565b5f6102788261024f565b9050919050565b6102888161026e565b8114610292575f5ffd5b50565b5f813590506102a38161027f565b92915050565b5f602082840312156102be576102bd610247565b5b5f6102cb84828501610295565b91505092915050565b5f8115159050919050565b6102e8816102d4565b82525050565b5f6020820190506103015f8301846102df565b92915050565b5f81519050919050565b5f82825260208201905092915050565b8281835e5f83830152505050565b5f601f19601f8301169050919050565b5f61034982610307565b6103538185610311565b9350610363818560208601610321565b61036c8161032f565b840191505092915050565b5f819050919050565b61038981610377565b82525050565b5f60a0820190508181035f8301526103a7818861033f565b90506103b66020830187610380565b81810360408301526103c8818661033f565b90506103d76060830185610380565b6103e460808301846102df565b9695505050505050565b5f819050919050565b5f61041161040c6104078461024f565b6103ee565b61024f565b9050919050565b5f610422826103f7565b9050919050565b5f61043382610418565b9050919050565b61044381610429565b82525050565b5f60208201905061045c5f83018461043a565b92915050565b61046b8161026e565b82525050565b5f6020820190506104845f830184610462565b92915050565b610493816102d4565b811461049d575f5ffd5b50565b5f815190506104ae8161048a565b92915050565b5f602082840312156104c9576104c8610247565b5b5f6104d6848285016104a0565b91505092915050565b5f5ffd5b5f5ffd5b7f4e487b71000000000000000000000000000000000000000000000000000000005f52604160045260245ffd5b61051d8261032f565b810181811067ffffffffffffffff8211171561053c5761053b6104e7565b5b80604052505050565b5f61054e61023e565b905061055a8282610514565b919050565b5f67ffffffffffffffff821115610579576105786104e7565b5b6105828261032f565b9050602081019050919050565b5f6105a161059c8461055f565b610545565b9050828152602081018484840111156105bd576105bc6104e3565b5b6105c8848285610321565b509392505050565b5f82601f8301126105e4576105e36104df565b5b81516105f484826020860161058f565b91505092915050565b61060681610377565b8114610610575f5ffd5b50565b5f81519050610621816105fd565b92915050565b5f5f5f5f5f60a086880312156106405761063f610247565b5b5f86015167ffffffffffffffff81111561065d5761065c61024b565b5b610669888289016105d0565b955050602061067a88828901610613565b945050604086015167ffffffffffffffff81111561069b5761069a61024b565b5b6106a7888289016105d0565b93505060606106b888828901610613565b92505060806106c9888289016104a0565b915050929550929590935056fea2646970667358221220b1a8798bd96f42ff72ecd14c37db2ff48dc06d2c24093937f8c8141b70cbc8d064736f6c634300081e0033","linkReferences":{}},"methodIdentifiers":{"getVendorBlessing(address)":"1090e4bc","isVendorActive(address)":"09334db6","revocation()":"8597a9c3"},"id":0}