{"abi":[{"type":"function","name":"getProof","inputs":[{"name":"payloadHash","type":"bytes32","internalType":"bytes32"}],"outputs":[{"name":"","type":"tuple","internalType":"struct ZeroKnowledgeOverrideSuite.ZKProof","components":[{"name":"payloadHash","type":"bytes32","internalType":"bytes32"},{"name":"isValid","type":"bool","internalType":"bool"},{"name":"steward","type":"string","internalType":"string"},{"name":"emotionalAPR","type":"string","internalType":"string"},{"name":"timestamp","type":"uint256","internalType":"uint256"}]}],"stateMutability":"view"},{"type":"function","name":"isTreatyGrade","inputs":[{"name":"payloadHash","type":"bytes32","internalType":"bytes32"}],"outputs":[{"name":"","type":"bool","internalType":"bool"}],"stateMutability":"view"},{"type":"function","name":"submitProof","inputs":[{"name":"payloadHash","type":"bytes32","internalType":"bytes32"},{"name":"isValid","type":"bool","internalType":"bool"},{"name":"steward","type":"string","internalType":"string"},{"name":"emotionalAPR","type":"string","internalType":"string"}],"outputs":[],"stateMutability":"nonpayable"},{"type":"function","name":"verifiedProofs","inputs":[{"name":"","type":"bytes32","internalType":"bytes32"}],"outputs":[{"name":"payloadHash","type":"bytes32","internalType":"bytes32"},{"name":"isValid","type":"bool","internalType":"bool"},{"name":"steward","type":"string","internalType":"string"},{"name":"emotionalAPR","type":"string","internalType":"string"},{"name":"timestamp","type":"uint256","internalType":"uint256"}],"stateMutability":"view"},{"type":"event","name":"ZKPayloadVerified","inputs":[{"name":"payloadHash","type":"bytes32","indexed":true,"internalType":"bytes32"},{"name":"steward","type":"string","indexed":false,"internalType":"string"},{"name":"emotionalAPR","type":"string","indexed":false,"internalType":"string"},{"name":"isValid","type":"bool","indexed":false,"internalType":"bool"},{"name":"timestamp","type":"uint256","indexed":false,"internalType":"uint256"}],"anonymous":false}],"bytecode":{"object":"0x6080604052348015600e575f5ffd5b50610d9a8061001c5f395ff3fe608060405234801561000f575f5ffd5b506004361061004a575f3560e01c8063176d80c41461004e5780631b80bb3a146100825780638467353b146100b2578063b4be7f69146100ce575b5f5ffd5b6100686004803603810190610063919061058a565b6100fe565b604051610079959493929190610666565b60405180910390f35b61009c6004803603810190610097919061058a565b610247565b6040516100a991906107b4565b60405180910390f35b6100cc60048036038101906100c7919061092a565b6103be565b005b6100e860048036038101906100e3919061058a565b6104f0565b6040516100f591906109c6565b60405180910390f35b5f602052805f5260405f205f91509050805f015490806001015f9054906101000a900460ff169080600201805461013490610a0c565b80601f016020809104026020016040519081016040528092919081815260200182805461016090610a0c565b80156101ab5780601f10610182576101008083540402835291602001916101ab565b820191905f5260205f20905b81548152906001019060200180831161018e57829003601f168201915b5050505050908060030180546101c090610a0c565b80601f01602080910402602001604051908101604052809291908181526020018280546101ec90610a0c565b80156102375780601f1061020e57610100808354040283529160200191610237565b820191905f5260205f20905b81548152906001019060200180831161021a57829003601f168201915b5050505050908060040154905085565b61024f610518565b5f5f8381526020019081526020015f206040518060a00160405290815f8201548152602001600182015f9054906101000a900460ff1615151515815260200160028201805461029d90610a0c565b80601f01602080910402602001604051908101604052809291908181526020018280546102c990610a0c565b80156103145780601f106102eb57610100808354040283529160200191610314565b820191905f5260205f20905b8154815290600101906020018083116102f757829003601f168201915b5050505050815260200160038201805461032d90610a0c565b80601f016020809104026020016040519081016040528092919081815260200182805461035990610a0c565b80156103a45780601f1061037b576101008083540402835291602001916103a4565b820191905f5260205f20905b81548152906001019060200180831161038757829003601f168201915b505050505081526020016004820154815250509050919050565b5f5f5f8681526020019081526020015f206004015414610413576040517f08c379a000000000000000000000000000000000000000000000000000000000815260040161040a90610a86565b60405180910390fd5b6040518060a001604052808581526020018415158152602001838152602001828152602001428152505f5f8681526020019081526020015f205f820151815f01556020820151816001015f6101000a81548160ff02191690831515021790555060408201518160020190816104889190610c44565b50606082015181600301908161049e9190610c44565b5060808201518160040155905050837f16aa471402dd2a2b82a32af2b89c10c5e311d74d51c0f8a2f8a4665ab4d117df838386426040516104e29493929190610d13565b60405180910390a250505050565b5f5f5f8381526020019081526020015f206001015f9054906101000a900460ff169050919050565b6040518060a001604052805f81526020015f1515815260200160608152602001606081526020015f81525090565b5f604051905090565b5f5ffd5b5f5ffd5b5f819050919050565b61056981610557565b8114610573575f5ffd5b50565b5f8135905061058481610560565b92915050565b5f6020828403121561059f5761059e61054f565b5b5f6105ac84828501610576565b91505092915050565b6105be81610557565b82525050565b5f8115159050919050565b6105d8816105c4565b82525050565b5f81519050919050565b5f82825260208201905092915050565b8281835e5f83830152505050565b5f601f19601f8301169050919050565b5f610620826105de565b61062a81856105e8565b935061063a8185602086016105f8565b61064381610606565b840191505092915050565b5f819050919050565b6106608161064e565b82525050565b5f60a0820190506106795f8301886105b5565b61068660208301876105cf565b81810360408301526106988186610616565b905081810360608301526106ac8185610616565b90506106bb6080830184610657565b9695505050505050565b6106ce81610557565b82525050565b6106dd816105c4565b82525050565b5f82825260208201905092915050565b5f6106fd826105de565b61070781856106e3565b93506107178185602086016105f8565b61072081610606565b840191505092915050565b6107348161064e565b82525050565b5f60a083015f83015161074f5f8601826106c5565b50602083015161076260208601826106d4565b506040830151848203604086015261077a82826106f3565b9150506060830151848203606086015261079482826106f3565b91505060808301516107a9608086018261072b565b508091505092915050565b5f6020820190508181035f8301526107cc818461073a565b905092915050565b6107dd816105c4565b81146107e7575f5ffd5b50565b5f813590506107f8816107d4565b92915050565b5f5ffd5b5f5ffd5b7f4e487b71000000000000000000000000000000000000000000000000000000005f52604160045260245ffd5b61083c82610606565b810181811067ffffffffffffffff8211171561085b5761085a610806565b5b80604052505050565b5f61086d610546565b90506108798282610833565b919050565b5f67ffffffffffffffff82111561089857610897610806565b5b6108a182610606565b9050602081019050919050565b828183375f83830152505050565b5f6108ce6108c98461087e565b610864565b9050828152602081018484840111156108ea576108e9610802565b5b6108f58482856108ae565b509392505050565b5f82601f830112610911576109106107fe565b5b81356109218482602086016108bc565b91505092915050565b5f5f5f5f608085870312156109425761094161054f565b5b5f61094f87828801610576565b9450506020610960878288016107ea565b935050604085013567ffffffffffffffff81111561098157610980610553565b5b61098d878288016108fd565b925050606085013567ffffffffffffffff8111156109ae576109ad610553565b5b6109ba878288016108fd565b91505092959194509250565b5f6020820190506109d95f8301846105cf565b92915050565b7f4e487b71000000000000000000000000000000000000000000000000000000005f52602260045260245ffd5b5f6002820490506001821680610a2357607f821691505b602082108103610a3657610a356109df565b5b50919050565b7f50726f6f6620616c7265616479207375626d69747465640000000000000000005f82015250565b5f610a706017836105e8565b9150610a7b82610a3c565b602082019050919050565b5f6020820190508181035f830152610a9d81610a64565b9050919050565b5f819050815f5260205f209050919050565b5f6020601f8301049050919050565b5f82821b905092915050565b5f60088302610b007fffffffffffffffffffffffffffffffffffffffffffffffffffffffffffffffff82610ac5565b610b0a8683610ac5565b95508019841693508086168417925050509392505050565b5f819050919050565b5f610b45610b40610b3b8461064e565b610b22565b61064e565b9050919050565b5f819050919050565b610b5e83610b2b565b610b72610b6a82610b4c565b848454610ad1565b825550505050565b5f5f905090565b610b89610b7a565b610b94818484610b55565b505050565b5b81811015610bb757610bac5f82610b81565b600181019050610b9a565b5050565b601f821115610bfc57610bcd81610aa4565b610bd684610ab6565b81016020851015610be5578190505b610bf9610bf185610ab6565b830182610b99565b50505b505050565b5f82821c905092915050565b5f610c1c5f1984600802610c01565b1980831691505092915050565b5f610c348383610c0d565b9150826002028217905092915050565b610c4d826105de565b67ffffffffffffffff811115610c6657610c65610806565b5b610c708254610a0c565b610c7b828285610bbb565b5f60209050601f831160018114610cac575f8415610c9a578287015190505b610ca48582610c29565b865550610d0b565b601f198416610cba86610aa4565b5f5b82811015610ce157848901518255600182019150602085019450602081019050610cbc565b86831015610cfe5784890151610cfa601f891682610c0d565b8355505b6001600288020188555050505b505050505050565b5f6080820190508181035f830152610d2b8187610616565b90508181036020830152610d3f8186610616565b9050610d4e60408301856105cf565b610d5b6060830184610657565b9594505050505056fea264697066735822122082dad7c0459ddf5ffb95d001de1b98d7ab5e0365bebcaa73fa9f39a75c7e57b664736f6c634300081e0033","linkReferences":{}},"methodIdentifiers":{"getProof(bytes32)":"1b80bb3a","isTreatyGrade(bytes32)":"b4be7f69","submitProof(bytes32,bool,string,string)":"8467353b","verifiedProofs(bytes32)":"176d80c4"},"id":6}