{"abi":[{"type":"function","name":"appeals","inputs":[{"name":"","type":"address","internalType":"address"}],"outputs":[{"name":"justification","type":"string","internalType":"string"},{"name":"resolved","type":"bool","internalType":"bool"},{"name":"approved","type":"bool","internalType":"bool"},{"name":"resolutionNote","type":"string","internalType":"string"},{"name":"timestamp","type":"uint256","internalType":"uint256"}],"stateMutability":"view"},{"type":"function","name":"getAppeal","inputs":[{"name":"vendor","type":"address","internalType":"address"}],"outputs":[{"name":"justification","type":"string","internalType":"string"},{"name":"resolved","type":"bool","internalType":"bool"},{"name":"approved","type":"bool","internalType":"bool"},{"name":"resolutionNote","type":"string","internalType":"string"},{"name":"timestamp","type":"uint256","internalType":"uint256"}],"stateMutability":"view"},{"type":"function","name":"resolveAppeal","inputs":[{"name":"vendor","type":"address","internalType":"address"},{"name":"approve","type":"bool","internalType":"bool"},{"name":"note","type":"string","internalType":"string"}],"outputs":[],"stateMutability":"nonpayable"},{"type":"function","name":"submitAppeal","inputs":[{"name":"vendor","type":"address","internalType":"address"},{"name":"justification","type":"string","internalType":"string"}],"outputs":[],"stateMutability":"nonpayable"},{"type":"event","name":"AppealResolved","inputs":[{"name":"vendor","type":"address","indexed":true,"internalType":"address"},{"name":"approved","type":"bool","indexed":false,"internalType":"bool"},{"name":"resolutionNote","type":"string","indexed":false,"internalType":"string"},{"name":"timestamp","type":"uint256","indexed":false,"internalType":"uint256"}],"anonymous":false},{"type":"event","name":"AppealSubmitted","inputs":[{"name":"vendor","type":"address","indexed":true,"internalType":"address"},{"name":"justification","type":"string","indexed":false,"internalType":"string"},{"name":"timestamp","type":"uint256","indexed":false,"internalType":"uint256"}],"anonymous":false}],"bytecode":{"object":"0x6080604052348015600e575f5ffd5b50610f6e8061001c5f395ff3fe608060405234801561000f575f5ffd5b506004361061004a575f3560e01c806341f7da7e1461004e5780635037fc7d14610082578063a8a89dc0146100b6578063d1379fdb146100d2575b5f5ffd5b610068600480360381019061006391906107ea565b6100ee565b6040516100799594939291906108b7565b60405180910390f35b61009c600480360381019061009791906107ea565b6102c9565b6040516100ad9594939291906108b7565b60405180910390f35b6100d060048036038101906100cb9190610a6c565b61041f565b005b6100ec60048036038101906100e79190610ad8565b6105fd565b005b60605f5f60605f5f5f5f8873ffffffffffffffffffffffffffffffffffffffff1673ffffffffffffffffffffffffffffffffffffffff1681526020019081526020015f206040518060a00160405290815f8201805461014c90610b5f565b80601f016020809104026020016040519081016040528092919081815260200182805461017890610b5f565b80156101c35780601f1061019a576101008083540402835291602001916101c3565b820191905f5260205f20905b8154815290600101906020018083116101a657829003601f168201915b50505050508152602001600182015f9054906101000a900460ff161515151581526020016001820160019054906101000a900460ff1615151515815260200160028201805461021190610b5f565b80601f016020809104026020016040519081016040528092919081815260200182805461023d90610b5f565b80156102885780601f1061025f57610100808354040283529160200191610288565b820191905f5260205f20905b81548152906001019060200180831161026b57829003601f168201915b505050505081526020016003820154815250509050805f01518160200151826040015183606001518460800151955095509550955095505091939590929450565b5f602052805f5260405f205f91509050805f0180546102e790610b5f565b80601f016020809104026020016040519081016040528092919081815260200182805461031390610b5f565b801561035e5780601f106103355761010080835404028352916020019161035e565b820191905f5260205f20905b81548152906001019060200180831161034157829003601f168201915b505050505090806001015f9054906101000a900460ff16908060010160019054906101000a900460ff169080600201805461039890610b5f565b80601f01602080910402602001604051908101604052809291908181526020018280546103c490610b5f565b801561040f5780601f106103e65761010080835404028352916020019161040f565b820191905f5260205f20905b8154815290600101906020018083116103f257829003601f168201915b5050505050908060030154905085565b5f5f8473ffffffffffffffffffffffffffffffffffffffff1673ffffffffffffffffffffffffffffffffffffffff1681526020019081526020015f206001015f9054906101000a900460ff16156104ab576040517f08c379a00000000000000000000000000000000000000000000000000000000081526004016104a290610bd9565b60405180910390fd5b60015f5f8573ffffffffffffffffffffffffffffffffffffffff1673ffffffffffffffffffffffffffffffffffffffff1681526020019081526020015f206001015f6101000a81548160ff021916908315150217905550815f5f8573ffffffffffffffffffffffffffffffffffffffff1673ffffffffffffffffffffffffffffffffffffffff1681526020019081526020015f2060010160016101000a81548160ff021916908315150217905550805f5f8573ffffffffffffffffffffffffffffffffffffffff1673ffffffffffffffffffffffffffffffffffffffff1681526020019081526020015f2060020190816105a59190610d97565b508273ffffffffffffffffffffffffffffffffffffffff167fb8e64aff1eb21f670d7744b229ae7869498a9f2b3f65018758a03aaa756b27ee8383426040516105f093929190610e66565b60405180910390a2505050565b5f815111610640576040517f08c379a000000000000000000000000000000000000000000000000000000000815260040161063790610eec565b60405180910390fd5b6040518060a001604052808281526020015f151581526020015f1515815260200160405180602001604052805f8152508152602001428152505f5f8473ffffffffffffffffffffffffffffffffffffffff1673ffffffffffffffffffffffffffffffffffffffff1681526020019081526020015f205f820151815f0190816106c89190610d97565b506020820151816001015f6101000a81548160ff02191690831515021790555060408201518160010160016101000a81548160ff021916908315150217905550606082015181600201908161071d9190610d97565b50608082015181600301559050508173ffffffffffffffffffffffffffffffffffffffff167ff15afd582df86fe7aeaffe7ab695ad12f38a628a97db13b24769eb4fac15c19a8242604051610773929190610f0a565b60405180910390a25050565b5f604051905090565b5f5ffd5b5f5ffd5b5f73ffffffffffffffffffffffffffffffffffffffff82169050919050565b5f6107b982610790565b9050919050565b6107c9816107af565b81146107d3575f5ffd5b50565b5f813590506107e4816107c0565b92915050565b5f602082840312156107ff576107fe610788565b5b5f61080c848285016107d6565b91505092915050565b5f81519050919050565b5f82825260208201905092915050565b8281835e5f83830152505050565b5f601f19601f8301169050919050565b5f61085782610815565b610861818561081f565b935061087181856020860161082f565b61087a8161083d565b840191505092915050565b5f8115159050919050565b61089981610885565b82525050565b5f819050919050565b6108b18161089f565b82525050565b5f60a0820190508181035f8301526108cf818861084d565b90506108de6020830187610890565b6108eb6040830186610890565b81810360608301526108fd818561084d565b905061090c60808301846108a8565b9695505050505050565b61091f81610885565b8114610929575f5ffd5b50565b5f8135905061093a81610916565b92915050565b5f5ffd5b5f5ffd5b7f4e487b71000000000000000000000000000000000000000000000000000000005f52604160045260245ffd5b61097e8261083d565b810181811067ffffffffffffffff8211171561099d5761099c610948565b5b80604052505050565b5f6109af61077f565b90506109bb8282610975565b919050565b5f67ffffffffffffffff8211156109da576109d9610948565b5b6109e38261083d565b9050602081019050919050565b828183375f83830152505050565b5f610a10610a0b846109c0565b6109a6565b905082815260208101848484011115610a2c57610a2b610944565b5b610a378482856109f0565b509392505050565b5f82601f830112610a5357610a52610940565b5b8135610a638482602086016109fe565b91505092915050565b5f5f5f60608486031215610a8357610a82610788565b5b5f610a90868287016107d6565b9350506020610aa18682870161092c565b925050604084013567ffffffffffffffff811115610ac257610ac161078c565b5b610ace86828701610a3f565b9150509250925092565b5f5f60408385031215610aee57610aed610788565b5b5f610afb858286016107d6565b925050602083013567ffffffffffffffff811115610b1c57610b1b61078c565b5b610b2885828601610a3f565b9150509250929050565b7f4e487b71000000000000000000000000000000000000000000000000000000005f52602260045260245ffd5b5f6002820490506001821680610b7657607f821691505b602082108103610b8957610b88610b32565b5b50919050565b7f41707065616c20616c7265616479207265736f6c7665640000000000000000005f82015250565b5f610bc360178361081f565b9150610bce82610b8f565b602082019050919050565b5f6020820190508181035f830152610bf081610bb7565b9050919050565b5f819050815f5260205f209050919050565b5f6020601f8301049050919050565b5f82821b905092915050565b5f60088302610c537fffffffffffffffffffffffffffffffffffffffffffffffffffffffffffffffff82610c18565b610c5d8683610c18565b95508019841693508086168417925050509392505050565b5f819050919050565b5f610c98610c93610c8e8461089f565b610c75565b61089f565b9050919050565b5f819050919050565b610cb183610c7e565b610cc5610cbd82610c9f565b848454610c24565b825550505050565b5f5f905090565b610cdc610ccd565b610ce7818484610ca8565b505050565b5b81811015610d0a57610cff5f82610cd4565b600181019050610ced565b5050565b601f821115610d4f57610d2081610bf7565b610d2984610c09565b81016020851015610d38578190505b610d4c610d4485610c09565b830182610cec565b50505b505050565b5f82821c905092915050565b5f610d6f5f1984600802610d54565b1980831691505092915050565b5f610d878383610d60565b9150826002028217905092915050565b610da082610815565b67ffffffffffffffff811115610db957610db8610948565b5b610dc38254610b5f565b610dce828285610d0e565b5f60209050601f831160018114610dff575f8415610ded578287015190505b610df78582610d7c565b865550610e5e565b601f198416610e0d86610bf7565b5f5b82811015610e3457848901518255600182019150602085019450602081019050610e0f565b86831015610e515784890151610e4d601f891682610d60565b8355505b6001600288020188555050505b505050505050565b5f606082019050610e795f830186610890565b8181036020830152610e8b818561084d565b9050610e9a60408301846108a8565b949350505050565b7f4a757374696669636174696f6e207265717569726564000000000000000000005f82015250565b5f610ed660168361081f565b9150610ee182610ea2565b602082019050919050565b5f6020820190508181035f830152610f0381610eca565b9050919050565b5f6040820190508181035f830152610f22818561084d565b9050610f3160208301846108a8565b939250505056fea264697066735822122002c28a2b63e3690e67d1ce3ba43060f06396c7a8e0bf124702886629ed95bee464736f6c634300081e0033","linkReferences":{}},"methodIdentifiers":{"appeals(address)":"5037fc7d","getAppeal(address)":"41f7da7e","resolveAppeal(address,bool,string)":"a8a89dc0","submitAppeal(address,string)":"d1379fdb"},"id":1}